{
  "contractName": "GlassKey",
  "abi": [
    {
      "inputs": [
        {
          "internalType": "string",
          "name": "customBaseURI_",
          "type": "string"
        }
      ],
      "stateMutability": "nonpayable",
      "type": "constructor"
    },
    {
      "anonymous": false,
      "inputs": [
        {
          "indexed": true,
          "internalType": "address",
          "name": "owner",
          "type": "address"
        },
        {
          "indexed": true,
          "internalType": "address",
          "name": "approved",
          "type": "address"
        },
        {
          "indexed": true,
          "internalType": "uint256",
          "name": "tokenId",
          "type": "uint256"
        }
      ],
      "name": "Approval",
      "type": "event"
    },
    {
      "anonymous": false,
      "inputs": [
        {
          "indexed": true,
          "internalType": "address",
          "name": "owner",
          "type": "address"
        },
        {
          "indexed": true,
          "internalType": "address",
          "name": "operator",
          "type": "address"
        },
        {
          "indexed": false,
          "internalType": "bool",
          "name": "approved",
          "type": "bool"
        }
      ],
      "name": "ApprovalForAll",
      "type": "event"
    },
    {
      "anonymous": false,
      "inputs": [
        {
          "indexed": true,
          "internalType": "address",
          "name": "previousOwner",
          "type": "address"
        },
        {
          "indexed": true,
          "internalType": "address",
          "name": "newOwner",
          "type": "address"
        }
      ],
      "name": "OwnershipTransferred",
      "type": "event"
    },
    {
      "anonymous": false,
      "inputs": [
        {
          "indexed": true,
          "internalType": "address",
          "name": "from",
          "type": "address"
        },
        {
          "indexed": true,
          "internalType": "address",
          "name": "to",
          "type": "address"
        },
        {
          "indexed": true,
          "internalType": "uint256",
          "name": "tokenId",
          "type": "uint256"
        }
      ],
      "name": "Transfer",
      "type": "event"
    },
    {
      "inputs": [
        {
          "internalType": "address",
          "name": "to",
          "type": "address"
        },
        {
          "internalType": "uint256",
          "name": "tokenId",
          "type": "uint256"
        }
      ],
      "name": "approve",
      "outputs": [],
      "stateMutability": "nonpayable",
      "type": "function"
    },
    {
      "inputs": [
        {
          "internalType": "address",
          "name": "owner",
          "type": "address"
        }
      ],
      "name": "balanceOf",
      "outputs": [
        {
          "internalType": "uint256",
          "name": "",
          "type": "uint256"
        }
      ],
      "stateMutability": "view",
      "type": "function"
    },
    {
      "inputs": [
        {
          "internalType": "uint256",
          "name": "tokenId",
          "type": "uint256"
        }
      ],
      "name": "getApproved",
      "outputs": [
        {
          "internalType": "address",
          "name": "",
          "type": "address"
        }
      ],
      "stateMutability": "view",
      "type": "function"
    },
    {
      "inputs": [
        {
          "internalType": "address",
          "name": "owner",
          "type": "address"
        },
        {
          "internalType": "address",
          "name": "operator",
          "type": "address"
        }
      ],
      "name": "isApprovedForAll",
      "outputs": [
        {
          "internalType": "bool",
          "name": "",
          "type": "bool"
        }
      ],
      "stateMutability": "view",
      "type": "function"
    },
    {
      "inputs": [],
      "name": "name",
      "outputs": [
        {
          "internalType": "string",
          "name": "",
          "type": "string"
        }
      ],
      "stateMutability": "view",
      "type": "function"
    },
    {
      "inputs": [],
      "name": "owner",
      "outputs": [
        {
          "internalType": "address",
          "name": "",
          "type": "address"
        }
      ],
      "stateMutability": "view",
      "type": "function"
    },
    {
      "inputs": [
        {
          "internalType": "uint256",
          "name": "tokenId",
          "type": "uint256"
        }
      ],
      "name": "ownerOf",
      "outputs": [
        {
          "internalType": "address",
          "name": "",
          "type": "address"
        }
      ],
      "stateMutability": "view",
      "type": "function"
    },
    {
      "inputs": [],
      "name": "renounceOwnership",
      "outputs": [],
      "stateMutability": "nonpayable",
      "type": "function"
    },
    {
      "inputs": [
        {
          "internalType": "address",
          "name": "from",
          "type": "address"
        },
        {
          "internalType": "address",
          "name": "to",
          "type": "address"
        },
        {
          "internalType": "uint256",
          "name": "tokenId",
          "type": "uint256"
        }
      ],
      "name": "safeTransferFrom",
      "outputs": [],
      "stateMutability": "nonpayable",
      "type": "function"
    },
    {
      "inputs": [
        {
          "internalType": "address",
          "name": "from",
          "type": "address"
        },
        {
          "internalType": "address",
          "name": "to",
          "type": "address"
        },
        {
          "internalType": "uint256",
          "name": "tokenId",
          "type": "uint256"
        },
        {
          "internalType": "bytes",
          "name": "_data",
          "type": "bytes"
        }
      ],
      "name": "safeTransferFrom",
      "outputs": [],
      "stateMutability": "nonpayable",
      "type": "function"
    },
    {
      "inputs": [
        {
          "internalType": "address",
          "name": "operator",
          "type": "address"
        },
        {
          "internalType": "bool",
          "name": "approved",
          "type": "bool"
        }
      ],
      "name": "setApprovalForAll",
      "outputs": [],
      "stateMutability": "nonpayable",
      "type": "function"
    },
    {
      "inputs": [
        {
          "internalType": "bytes4",
          "name": "interfaceId",
          "type": "bytes4"
        }
      ],
      "name": "supportsInterface",
      "outputs": [
        {
          "internalType": "bool",
          "name": "",
          "type": "bool"
        }
      ],
      "stateMutability": "view",
      "type": "function"
    },
    {
      "inputs": [],
      "name": "symbol",
      "outputs": [
        {
          "internalType": "string",
          "name": "",
          "type": "string"
        }
      ],
      "stateMutability": "view",
      "type": "function"
    },
    {
      "inputs": [
        {
          "internalType": "uint256",
          "name": "tokenId",
          "type": "uint256"
        }
      ],
      "name": "tokenURI",
      "outputs": [
        {
          "internalType": "string",
          "name": "",
          "type": "string"
        }
      ],
      "stateMutability": "view",
      "type": "function"
    },
    {
      "inputs": [
        {
          "internalType": "address",
          "name": "from",
          "type": "address"
        },
        {
          "internalType": "address",
          "name": "to",
          "type": "address"
        },
        {
          "internalType": "uint256",
          "name": "tokenId",
          "type": "uint256"
        }
      ],
      "name": "transferFrom",
      "outputs": [],
      "stateMutability": "nonpayable",
      "type": "function"
    },
    {
      "inputs": [
        {
          "internalType": "address",
          "name": "newOwner",
          "type": "address"
        }
      ],
      "name": "transferOwnership",
      "outputs": [],
      "stateMutability": "nonpayable",
      "type": "function"
    },
    {
      "inputs": [
        {
          "internalType": "string",
          "name": "newBaseURI_",
          "type": "string"
        }
      ],
      "name": "setBaseURI",
      "outputs": [],
      "stateMutability": "nonpayable",
      "type": "function"
    },
    {
      "inputs": [
        {
          "internalType": "uint256",
          "name": "quantity",
          "type": "uint256"
        }
      ],
      "name": "purchase",
      "outputs": [],
      "stateMutability": "payable",
      "type": "function"
    }
  ],
  "bytecode": "0x60806040523480156200001157600080fd5b5060405162001dbc38038062001dbc8339810160408190526200003491620001f2565b6040805180820182526008815267476c6173734b657960c01b6020808301918252835180850190945260038452624b455960e81b9084015281519192916200007f9160009162000136565b5080516200009590600190602084019062000136565b505050620000b2620000ac620000e060201b60201c565b620000e4565b8051620000c790600990602084019062000136565b505066b1a2bc2ec50000600a55610100600b556200030b565b3390565b600780546001600160a01b038381166001600160a01b0319831681179093556040519116919082907f8be0079c531659141344cd1fd0a4f28419497f9722a3daafe3b4186f6b6457e090600090a35050565b8280546200014490620002ce565b90600052602060002090601f016020900481019282620001685760008555620001b3565b82601f106200018357805160ff1916838001178555620001b3565b82800160010185558215620001b3579182015b82811115620001b357825182559160200191906001019062000196565b50620001c1929150620001c5565b5090565b5b80821115620001c15760008155600101620001c6565b634e487b7160e01b600052604160045260246000fd5b600060208083850312156200020657600080fd5b82516001600160401b03808211156200021e57600080fd5b818501915085601f8301126200023357600080fd5b815181811115620002485762000248620001dc565b604051601f8201601f19908116603f01168101908382118183101715620002735762000273620001dc565b8160405282815288868487010111156200028c57600080fd5b600093505b82841015620002b0578484018601518185018701529285019262000291565b82841115620002c25760008684830101525b98975050505050505050565b600181811c90821680620002e357607f821691505b602082108114156200030557634e487b7160e01b600052602260045260246000fd5b50919050565b611aa1806200031b6000396000f3fe6080604052600436106101095760003560e01c8063715018a611610095578063b88d4fde11610064578063b88d4fde146102d5578063c87b56dd146102f5578063e985e9c514610315578063efef39a11461035e578063f2fde38b1461037157600080fd5b8063715018a61461026d5780638da5cb5b1461028257806395d89b41146102a0578063a22cb465146102b557600080fd5b806323b872dd116100dc57806323b872dd146101bf57806342842e0e146101df57806355f804b3146101ff5780636352211e1461021f57806370a082311461023f57600080fd5b806301ffc9a71461010e57806306fdde0314610143578063081812fc14610165578063095ea7b31461019d575b600080fd5b34801561011a57600080fd5b5061012e6101293660046114fe565b610391565b60405190151581526020015b60405180910390f35b34801561014f57600080fd5b506101586103e3565b60405161013a9190611573565b34801561017157600080fd5b50610185610180366004611586565b610475565b6040516001600160a01b03909116815260200161013a565b3480156101a957600080fd5b506101bd6101b83660046115bb565b61050f565b005b3480156101cb57600080fd5b506101bd6101da3660046115e5565b610625565b3480156101eb57600080fd5b506101bd6101fa3660046115e5565b610656565b34801561020b57600080fd5b506101bd61021a3660046116ad565b610671565b34801561022b57600080fd5b5061018561023a366004611586565b6106b2565b34801561024b57600080fd5b5061025f61025a3660046116f6565b610729565b60405190815260200161013a565b34801561027957600080fd5b506101bd6107b0565b34801561028e57600080fd5b506007546001600160a01b0316610185565b3480156102ac57600080fd5b506101586107e6565b3480156102c157600080fd5b506101bd6102d0366004611711565b6107f5565b3480156102e157600080fd5b506101bd6102f036600461174d565b610800565b34801561030157600080fd5b50610158610310366004611586565b610838565b34801561032157600080fd5b5061012e6103303660046117c9565b6001600160a01b03918216600090815260056020908152604080832093909416825291909152205460ff1690565b6101bd61036c366004611586565b6109b2565b34801561037d57600080fd5b506101bd61038c3660046116f6565b610abe565b60006001600160e01b031982166380ac58cd60e01b14806103c257506001600160e01b03198216635b5e139f60e01b145b806103dd57506301ffc9a760e01b6001600160e01b03198316145b92915050565b6060600080546103f2906117fc565b80601f016020809104026020016040519081016040528092919081815260200182805461041e906117fc565b801561046b5780601f106104405761010080835404028352916020019161046b565b820191906000526020600020905b81548152906001019060200180831161044e57829003601f168201915b5050505050905090565b6000818152600260205260408120546001600160a01b03166104f35760405162461bcd60e51b815260206004820152602c60248201527f4552433732313a20617070726f76656420717565727920666f72206e6f6e657860448201526b34b9ba32b73a103a37b5b2b760a11b60648201526084015b60405180910390fd5b506000908152600460205260409020546001600160a01b031690565b600061051a826106b2565b9050806001600160a01b0316836001600160a01b031614156105885760405162461bcd60e51b815260206004820152602160248201527f4552433732313a20617070726f76616c20746f2063757272656e74206f776e656044820152603960f91b60648201526084016104ea565b336001600160a01b03821614806105a457506105a48133610330565b6106165760405162461bcd60e51b815260206004820152603860248201527f4552433732313a20617070726f76652063616c6c6572206973206e6f74206f7760448201527f6e6572206e6f7220617070726f76656420666f7220616c6c000000000000000060648201526084016104ea565b6106208383610b59565b505050565b61062f3382610bc7565b61064b5760405162461bcd60e51b81526004016104ea90611837565b610620838383610cba565b61062083838360405180602001604052806000815250610800565b6007546001600160a01b0316331461069b5760405162461bcd60e51b81526004016104ea90611888565b80516106ae90600990602084019061144f565b5050565b6000818152600260205260408120546001600160a01b0316806103dd5760405162461bcd60e51b815260206004820152602960248201527f4552433732313a206f776e657220717565727920666f72206e6f6e657869737460448201526832b73a103a37b5b2b760b91b60648201526084016104ea565b60006001600160a01b0382166107945760405162461bcd60e51b815260206004820152602a60248201527f4552433732313a2062616c616e636520717565727920666f7220746865207a65604482015269726f206164647265737360b01b60648201526084016104ea565b506001600160a01b031660009081526003602052604090205490565b6007546001600160a01b031633146107da5760405162461bcd60e51b81526004016104ea90611888565b6107e46000610e5a565b565b6060600180546103f2906117fc565b6106ae338383610eac565b61080a3383610bc7565b6108265760405162461bcd60e51b81526004016104ea90611837565b61083284848484610f7b565b50505050565b6000818152600260205260409020546060906001600160a01b03166108b95760405162461bcd60e51b815260206004820152603160248201527f45524337323155524953746f726167653a2055524920717565727920666f72206044820152703737b732bc34b9ba32b73a103a37b5b2b760791b60648201526084016104ea565b600082815260066020526040812080546108d2906117fc565b80601f01602080910402602001604051908101604052809291908181526020018280546108fe906117fc565b801561094b5780601f106109205761010080835404028352916020019161094b565b820191906000526020600020905b81548152906001019060200180831161092e57829003601f168201915b50505050509050600061095c610fae565b905080516000141561096f575092915050565b8151156109a15780826040516020016109899291906118bd565b60405160208183030381529060405292505050919050565b6109aa84610fbd565b949350505050565b80600a546109c09190611902565b341015610a055760405162461bcd60e51b8152602060048201526013602482015272139bdd08195b9bdd59da08115512081cd95b9d606a1b60448201526064016104ea565b600a610a1033610729565b1115610a5e5760405162461bcd60e51b815260206004820152601860248201527f43616e6e6f74206d696e74206d6f7265207468616e203130000000000000000060448201526064016104ea565b6007546040516001600160a01b03909116903480156108fc02916000818181858888f19350505050158015610a97573d6000803e3d6000fd5b5060005b818110156106ae57610aac33611098565b80610ab681611921565b915050610a9b565b6007546001600160a01b03163314610ae85760405162461bcd60e51b81526004016104ea90611888565b6001600160a01b038116610b4d5760405162461bcd60e51b815260206004820152602660248201527f4f776e61626c653a206e6577206f776e657220697320746865207a65726f206160448201526564647265737360d01b60648201526084016104ea565b610b5681610e5a565b50565b600081815260046020526040902080546001600160a01b0319166001600160a01b0384169081179091558190610b8e826106b2565b6001600160a01b03167f8c5be1e5ebec7d5bd14f71427d1e84f3dd0314c0f7b2291e5b200ac8c7c3b92560405160405180910390a45050565b6000818152600260205260408120546001600160a01b0316610c405760405162461bcd60e51b815260206004820152602c60248201527f4552433732313a206f70657261746f7220717565727920666f72206e6f6e657860448201526b34b9ba32b73a103a37b5b2b760a11b60648201526084016104ea565b6000610c4b836106b2565b9050806001600160a01b0316846001600160a01b03161480610c865750836001600160a01b0316610c7b84610475565b6001600160a01b0316145b806109aa57506001600160a01b0380821660009081526005602090815260408083209388168352929052205460ff166109aa565b826001600160a01b0316610ccd826106b2565b6001600160a01b031614610d355760405162461bcd60e51b815260206004820152602960248201527f4552433732313a207472616e73666572206f6620746f6b656e2074686174206960448201526839903737ba1037bbb760b91b60648201526084016104ea565b6001600160a01b038216610d975760405162461bcd60e51b8152602060048201526024808201527f4552433732313a207472616e7366657220746f20746865207a65726f206164646044820152637265737360e01b60648201526084016104ea565b610da2600082610b59565b6001600160a01b0383166000908152600360205260408120805460019290610dcb90849061193c565b90915550506001600160a01b0382166000908152600360205260408120805460019290610df9908490611953565b909155505060008181526002602052604080822080546001600160a01b0319166001600160a01b0386811691821790925591518493918716917fddf252ad1be2c89b69c2b068fc378daa952ba7f163c4a11628f55a4df523b3ef91a4505050565b600780546001600160a01b038381166001600160a01b0319831681179093556040519116919082907f8be0079c531659141344cd1fd0a4f28419497f9722a3daafe3b4186f6b6457e090600090a35050565b816001600160a01b0316836001600160a01b03161415610f0e5760405162461bcd60e51b815260206004820152601960248201527f4552433732313a20617070726f766520746f2063616c6c65720000000000000060448201526064016104ea565b6001600160a01b03838116600081815260056020908152604080832094871680845294825291829020805460ff191686151590811790915591519182527f17307eab39ab6107e8899845ad3d59bd9653f200f220920489ca2b5937696c31910160405180910390a3505050565b610f86848484610cba565b610f9284848484611111565b6108325760405162461bcd60e51b81526004016104ea9061196b565b6060600980546103f2906117fc565b6000818152600260205260409020546060906001600160a01b031661103c5760405162461bcd60e51b815260206004820152602f60248201527f4552433732314d657461646174613a2055524920717565727920666f72206e6f60448201526e3732bc34b9ba32b73a103a37b5b2b760891b60648201526084016104ea565b6000611046610fae565b905060008151116110665760405180602001604052806000815250611091565b806110708461120f565b6040516020016110819291906118bd565b6040516020818303038152906040525b9392505050565b600b5460085411156110ec5760405162461bcd60e51b815260206004820152601860248201527f323536206b65797320616c72656164792063726561746564000000000000000060448201526064016104ea565b6110fa600880546001019055565b600061110560085490565b90506106ae828261130d565b60006001600160a01b0384163b1561120457604051630a85bd0160e11b81526001600160a01b0385169063150b7a02906111559033908990889088906004016119bd565b6020604051808303816000875af1925050508015611190575060408051601f3d908101601f1916820190925261118d918101906119fa565b60015b6111ea573d8080156111be576040519150601f19603f3d011682016040523d82523d6000602084013e6111c3565b606091505b5080516111e25760405162461bcd60e51b81526004016104ea9061196b565b805181602001fd5b6001600160e01b031916630a85bd0160e11b1490506109aa565b506001949350505050565b6060816112335750506040805180820190915260018152600360fc1b602082015290565b8160005b811561125d578061124781611921565b91506112569050600a83611a2d565b9150611237565b60008167ffffffffffffffff81111561127857611278611621565b6040519080825280601f01601f1916602001820160405280156112a2576020820181803683370190505b5090505b84156109aa576112b760018361193c565b91506112c4600a86611a41565b6112cf906030611953565b60f81b8183815181106112e4576112e4611a55565b60200101906001600160f81b031916908160001a905350611306600a86611a2d565b94506112a6565b6001600160a01b0382166113635760405162461bcd60e51b815260206004820181905260248201527f4552433732313a206d696e7420746f20746865207a65726f206164647265737360448201526064016104ea565b6000818152600260205260409020546001600160a01b0316156113c85760405162461bcd60e51b815260206004820152601c60248201527f4552433732313a20746f6b656e20616c7265616479206d696e7465640000000060448201526064016104ea565b6001600160a01b03821660009081526003602052604081208054600192906113f1908490611953565b909155505060008181526002602052604080822080546001600160a01b0319166001600160a01b03861690811790915590518392907fddf252ad1be2c89b69c2b068fc378daa952ba7f163c4a11628f55a4df523b3ef908290a45050565b82805461145b906117fc565b90600052602060002090601f01602090048101928261147d57600085556114c3565b82601f1061149657805160ff19168380011785556114c3565b828001600101855582156114c3579182015b828111156114c35782518255916020019190600101906114a8565b506114cf9291506114d3565b5090565b5b808211156114cf57600081556001016114d4565b6001600160e01b031981168114610b5657600080fd5b60006020828403121561151057600080fd5b8135611091816114e8565b60005b8381101561153657818101518382015260200161151e565b838111156108325750506000910152565b6000815180845261155f81602086016020860161151b565b601f01601f19169290920160200192915050565b6020815260006110916020830184611547565b60006020828403121561159857600080fd5b5035919050565b80356001600160a01b03811681146115b657600080fd5b919050565b600080604083850312156115ce57600080fd5b6115d78361159f565b946020939093013593505050565b6000806000606084860312156115fa57600080fd5b6116038461159f565b92506116116020850161159f565b9150604084013590509250925092565b634e487b7160e01b600052604160045260246000fd5b600067ffffffffffffffff8084111561165257611652611621565b604051601f8501601f19908116603f0116810190828211818310171561167a5761167a611621565b8160405280935085815286868601111561169357600080fd5b858560208301376000602087830101525050509392505050565b6000602082840312156116bf57600080fd5b813567ffffffffffffffff8111156116d657600080fd5b8201601f810184136116e757600080fd5b6109aa84823560208401611637565b60006020828403121561170857600080fd5b6110918261159f565b6000806040838503121561172457600080fd5b61172d8361159f565b91506020830135801515811461174257600080fd5b809150509250929050565b6000806000806080858703121561176357600080fd5b61176c8561159f565b935061177a6020860161159f565b925060408501359150606085013567ffffffffffffffff81111561179d57600080fd5b8501601f810187136117ae57600080fd5b6117bd87823560208401611637565b91505092959194509250565b600080604083850312156117dc57600080fd5b6117e58361159f565b91506117f36020840161159f565b90509250929050565b600181811c9082168061181057607f821691505b6020821081141561183157634e487b7160e01b600052602260045260246000fd5b50919050565b60208082526031908201527f4552433732313a207472616e736665722063616c6c6572206973206e6f74206f6040820152701ddb995c881b9bdc88185c1c1c9bdd9959607a1b606082015260800190565b6020808252818101527f4f776e61626c653a2063616c6c6572206973206e6f7420746865206f776e6572604082015260600190565b600083516118cf81846020880161151b565b8351908301906118e381836020880161151b565b01949350505050565b634e487b7160e01b600052601160045260246000fd5b600081600019048311821515161561191c5761191c6118ec565b500290565b6000600019821415611935576119356118ec565b5060010190565b60008282101561194e5761194e6118ec565b500390565b60008219821115611966576119666118ec565b500190565b60208082526032908201527f4552433732313a207472616e7366657220746f206e6f6e20455243373231526560408201527131b2b4bb32b91034b6b83632b6b2b73a32b960711b606082015260800190565b6001600160a01b03858116825284166020820152604081018390526080606082018190526000906119f090830184611547565b9695505050505050565b600060208284031215611a0c57600080fd5b8151611091816114e8565b634e487b7160e01b600052601260045260246000fd5b600082611a3c57611a3c611a17565b500490565b600082611a5057611a50611a17565b500690565b634e487b7160e01b600052603260045260246000fdfea26469706673582212208a6b4bbd9ebf9f35e80ef20962762c229922c8438516f5124e5397549fc2aa2064736f6c634300080b0033",
  "immutableReferences": {},
  "source": "// SPDX-License-Identifier: MIT\npragma solidity ^0.8.0;\n\nimport \"@openzeppelin/contracts/token/ERC721/extensions/ERC721URIStorage.sol\";\nimport \"@openzeppelin/contracts/utils/Counters.sol\";\nimport \"@openzeppelin/contracts/access/Ownable.sol\";\n\ncontract GlassKey is ERC721URIStorage, Ownable {\n    using Counters for Counters.Counter;\n    Counters.Counter private _tokenIds;\n\n    string private _customBaseURI;\n    uint256 private _price;\n    uint256 private _maxSupply;\n\n    constructor(string memory customBaseURI_) ERC721(\"GlassKey\", \"KEY\") {\n        _customBaseURI = customBaseURI_;\n        _price = 0.05 ether;\n        _maxSupply = 256;\n    }\n\n    function setBaseURI(string memory newBaseURI_) public onlyOwner {\n        _customBaseURI = newBaseURI_;\n    }\n\n    function purchase(uint256 quantity) public payable {\n        require(msg.value >= (_price* quantity), \"Not enough ETH sent\");\n        require(balanceOf(msg.sender) <= 10, \"Cannot mint more than 10\");\n        payable(owner()).transfer(msg.value);\n        for (uint i = 0; i < quantity; i++) {\n            mintForPurchase(msg.sender);\n        }\n    }\n\n    function mintForPurchase(address buyer) private {\n        require (_tokenIds.current() <= _maxSupply, \"256 keys already created\");\n        _tokenIds.increment();\n        \n        uint256 newItemId = _tokenIds.current();\n        _mint(buyer, newItemId);\n    }\n\n    function _baseURI() internal view virtual override returns (string memory) {\n        return _customBaseURI;\n    }\n}",
  "sourcePath": "/home/nate/developer/GlassKeys/contracts/GlassKey.sol",
  "compiler": {
    "name": "solc",
    "version": "0.8.11+commit.d7f03943.Emscripten.clang"
  },
  "schemaVersion": "3.4.4",
  "updatedAt": "2022-01-31T05:47:26.877Z",
  "devdoc": {
    "kind": "dev",
    "methods": {
      "approve(address,uint256)": {
        "details": "See {IERC721-approve}."
      },
      "balanceOf(address)": {
        "details": "See {IERC721-balanceOf}."
      },
      "getApproved(uint256)": {
        "details": "See {IERC721-getApproved}."
      },
      "isApprovedForAll(address,address)": {
        "details": "See {IERC721-isApprovedForAll}."
      },
      "name()": {
        "details": "See {IERC721Metadata-name}."
      },
      "owner()": {
        "details": "Returns the address of the current owner."
      },
      "ownerOf(uint256)": {
        "details": "See {IERC721-ownerOf}."
      },
      "renounceOwnership()": {
        "details": "Leaves the contract without owner. It will not be possible to call `onlyOwner` functions anymore. Can only be called by the current owner. NOTE: Renouncing ownership will leave the contract without an owner, thereby removing any functionality that is only available to the owner."
      },
      "safeTransferFrom(address,address,uint256)": {
        "details": "See {IERC721-safeTransferFrom}."
      },
      "safeTransferFrom(address,address,uint256,bytes)": {
        "details": "See {IERC721-safeTransferFrom}."
      },
      "setApprovalForAll(address,bool)": {
        "details": "See {IERC721-setApprovalForAll}."
      },
      "supportsInterface(bytes4)": {
        "details": "See {IERC165-supportsInterface}."
      },
      "symbol()": {
        "details": "See {IERC721Metadata-symbol}."
      },
      "tokenURI(uint256)": {
        "details": "See {IERC721Metadata-tokenURI}."
      },
      "transferFrom(address,address,uint256)": {
        "details": "See {IERC721-transferFrom}."
      },
      "transferOwnership(address)": {
        "details": "Transfers ownership of the contract to a new account (`newOwner`). Can only be called by the current owner."
      }
    },
    "version": 1
  },
  "userdoc": {
    "kind": "user",
    "methods": {},
    "version": 1
  }
}